{
  "_format": "hh-sol-artifact-1",
  "contractName": "Transaction",
  "sourceName": "contracts/Transaction.sol",
  "abi": [
    {
      "inputs": [],
      "name": "BetAmount",
      "outputs": [
        {
          "internalType": "uint256",
          "name": "",
          "type": "uint256"
        }
      ],
      "stateMutability": "view",
      "type": "function"
    },
    {
      "inputs": [
        {
          "internalType": "uint256",
          "name": "team",
          "type": "uint256"
        }
      ],
      "name": "DeclareBet",
      "outputs": [],
      "stateMutability": "payable",
      "type": "function"
    },
    {
      "inputs": [
        {
          "internalType": "uint256",
          "name": "team1",
          "type": "uint256"
        },
        {
          "internalType": "uint256",
          "name": "team2",
          "type": "uint256"
        }
      ],
      "name": "Firstplayer",
      "outputs": [],
      "stateMutability": "payable",
      "type": "function"
    },
    {
      "inputs": [],
      "name": "SecondPlayer",
      "outputs": [],
      "stateMutability": "payable",
      "type": "function"
    },
    {
      "inputs": [
        {
          "internalType": "uint256",
          "name": "",
          "type": "uint256"
        }
      ],
      "name": "TeamToAddress",
      "outputs": [
        {
          "internalType": "address",
          "name": "",
          "type": "address"
        }
      ],
      "stateMutability": "view",
      "type": "function"
    },
    {
      "inputs": [],
      "name": "amount",
      "outputs": [
        {
          "internalType": "uint256",
          "name": "",
          "type": "uint256"
        }
      ],
      "stateMutability": "view",
      "type": "function"
    },
    {
      "inputs": [],
      "name": "fee",
      "outputs": [
        {
          "internalType": "uint256",
          "name": "",
          "type": "uint256"
        }
      ],
      "stateMutability": "view",
      "type": "function"
    },
    {
      "inputs": [],
      "name": "firstTeam",
      "outputs": [
        {
          "internalType": "uint256",
          "name": "",
          "type": "uint256"
        }
      ],
      "stateMutability": "view",
      "type": "function"
    },
    {
      "inputs": [],
      "name": "secondTeam",
      "outputs": [
        {
          "internalType": "uint256",
          "name": "",
          "type": "uint256"
        }
      ],
      "stateMutability": "view",
      "type": "function"
    }
  ],
  "bytecode": "0x6080604052655af3107a40006000556000600255600060035534801561002457600080fd5b5061069f806100346000396000f3fe6080604052600436106100865760003560e01c8063aa8c217c11610059578063aa8c217c146100f8578063aca2273914610123578063ddca3f431461014e578063e4bf686514610179578063efdeccff146101b657610086565b8063723ee3261461008b5780637f696b79146100a75780638031fcad146100b15780639ae2b887146100dc575b600080fd5b6100a560048036038101906100a0919061048d565b6101e1565b005b6100af6102ac565b005b3480156100bd57600080fd5b506100c6610346565b6040516100d391906104c9565b60405180910390f35b6100f660048036038101906100f191906104e4565b610350565b005b34801561010457600080fd5b5061010d610407565b60405161011a91906104c9565b60405180910390f35b34801561012f57600080fd5b5061013861040d565b60405161014591906104c9565b60405180910390f35b34801561015a57600080fd5b50610163610413565b60405161017091906104c9565b60405180910390f35b34801561018557600080fd5b506101a0600480360381019061019b919061048d565b610419565b6040516101ad9190610565565b60405180910390f35b3480156101c257600080fd5b506101cb61044c565b6040516101d891906104c9565b60405180910390f35b600080600354141561022a5760046000600254815260200190815260200160002060009054906101000a900473ffffffffffffffffffffffffffffffffffffffff169050610261565b6004600083815260200190815260200160002060009054906101000a900473ffffffffffffffffffffffffffffffffffffffff1690505b8073ffffffffffffffffffffffffffffffffffffffff166108fc479081150290604051600060405180830381858888f193505050501580156102a7573d6000803e3d6000fd5b505050565b60015434146102f0576040517f08c379a00000000000000000000000000000000000000000000000000000000081526004016102e7906105dd565b60405180910390fd5b3360046000600354815260200190815260200160002060006101000a81548173ffffffffffffffffffffffffffffffffffffffff021916908373ffffffffffffffffffffffffffffffffffffffff160217905550565b6000600154905090565b662386f26fc1000034101561039a576040517f08c379a000000000000000000000000000000000000000000000000000000000815260040161039190610649565b60405180910390fd5b81600281905550806003819055503360046000600254815260200190815260200160002060006101000a81548173ffffffffffffffffffffffffffffffffffffffff021916908373ffffffffffffffffffffffffffffffffffffffff160217905550346001819055505050565b60015481565b60025481565b60005481565b60046020528060005260406000206000915054906101000a900473ffffffffffffffffffffffffffffffffffffffff1681565b60035481565b600080fd5b6000819050919050565b61046a81610457565b811461047557600080fd5b50565b60008135905061048781610461565b92915050565b6000602082840312156104a3576104a2610452565b5b60006104b184828501610478565b91505092915050565b6104c381610457565b82525050565b60006020820190506104de60008301846104ba565b92915050565b600080604083850312156104fb576104fa610452565b5b600061050985828601610478565b925050602061051a85828601610478565b9150509250929050565b600073ffffffffffffffffffffffffffffffffffffffff82169050919050565b600061054f82610524565b9050919050565b61055f81610544565b82525050565b600060208201905061057a6000830184610556565b92915050565b600082825260208201905092915050565b7f506c6561736520456e74657220612056616c69642042657420416d6f756e7400600082015250565b60006105c7601f83610580565b91506105d282610591565b602082019050919050565b600060208201905081810360008301526105f6816105ba565b9050919050565b7f4e65656420536f6d65206d6f726520416d6f756e7420466f7220426574000000600082015250565b6000610633601d83610580565b915061063e826105fd565b602082019050919050565b6000602082019050818103600083015261066281610626565b905091905056fea2646970667358221220f2f4082065a6b7713e291132df45a649768434374efd12b8a96291c214c2ed1a64736f6c63430008090033",
  "linkReferences": {},
  "deployedLinkReferences": {}
}